{
  "_format": "hh-sol-artifact-1",
  "contractName": "TwitterContract",
  "sourceName": "contracts/TwitterContract.sol",
  "abi": [
    {
      "anonymous": false,
      "inputs": [
        {
          "indexed": false,
          "internalType": "address",
          "name": "recipient",
          "type": "address"
        },
        {
          "indexed": false,
          "internalType": "uint256",
          "name": "tweetId",
          "type": "uint256"
        },
        {
          "indexed": false,
          "internalType": "uint256",
          "name": "timestamp",
          "type": "uint256"
        }
      ],
      "name": "AddTweet",
      "type": "event"
    },
    {
      "anonymous": false,
      "inputs": [
        {
          "indexed": false,
          "internalType": "uint256",
          "name": "tweetId",
          "type": "uint256"
        },
        {
          "indexed": false,
          "internalType": "bool",
          "name": "isDeleted",
          "type": "bool"
        }
      ],
      "name": "DeleteTweet",
      "type": "event"
    },
    {
      "inputs": [
        {
          "internalType": "string",
          "name": "tweetText",
          "type": "string"
        },
        {
          "internalType": "uint256",
          "name": "timestamp",
          "type": "uint256"
        },
        {
          "internalType": "bool",
          "name": "isDeleted",
          "type": "bool"
        }
      ],
      "name": "addTweet",
      "outputs": [],
      "stateMutability": "nonpayable",
      "type": "function"
    },
    {
      "inputs": [
        {
          "internalType": "uint256",
          "name": "tweetId",
          "type": "uint256"
        },
        {
          "internalType": "bool",
          "name": "isDeleted",
          "type": "bool"
        }
      ],
      "name": "deleteTweet",
      "outputs": [],
      "stateMutability": "nonpayable",
      "type": "function"
    },
    {
      "inputs": [],
      "name": "getListTweets",
      "outputs": [
        {
          "components": [
            {
              "internalType": "uint256",
              "name": "id",
              "type": "uint256"
            },
            {
              "internalType": "address",
              "name": "username",
              "type": "address"
            },
            {
              "internalType": "string",
              "name": "tweetText",
              "type": "string"
            },
            {
              "internalType": "uint256",
              "name": "timestamp",
              "type": "uint256"
            },
            {
              "internalType": "bool",
              "name": "isDeleted",
              "type": "bool"
            }
          ],
          "internalType": "struct TwitterContract.Tweet[]",
          "name": "",
          "type": "tuple[]"
        }
      ],
      "stateMutability": "view",
      "type": "function"
    },
    {
      "inputs": [],
      "name": "getMyTweets",
      "outputs": [
        {
          "components": [
            {
              "internalType": "uint256",
              "name": "id",
              "type": "uint256"
            },
            {
              "internalType": "address",
              "name": "username",
              "type": "address"
            },
            {
              "internalType": "string",
              "name": "tweetText",
              "type": "string"
            },
            {
              "internalType": "uint256",
              "name": "timestamp",
              "type": "uint256"
            },
            {
              "internalType": "bool",
              "name": "isDeleted",
              "type": "bool"
            }
          ],
          "internalType": "struct TwitterContract.Tweet[]",
          "name": "",
          "type": "tuple[]"
        }
      ],
      "stateMutability": "view",
      "type": "function"
    },
    {
      "inputs": [
        {
          "internalType": "uint256",
          "name": "tweetId",
          "type": "uint256"
        }
      ],
      "name": "getTweet",
      "outputs": [
        {
          "components": [
            {
              "internalType": "uint256",
              "name": "id",
              "type": "uint256"
            },
            {
              "internalType": "address",
              "name": "username",
              "type": "address"
            },
            {
              "internalType": "string",
              "name": "tweetText",
              "type": "string"
            },
            {
              "internalType": "uint256",
              "name": "timestamp",
              "type": "uint256"
            },
            {
              "internalType": "bool",
              "name": "isDeleted",
              "type": "bool"
            }
          ],
          "internalType": "struct TwitterContract.Tweet",
          "name": "",
          "type": "tuple"
        }
      ],
      "stateMutability": "view",
      "type": "function"
    }
  ],
  "bytecode": "0x608060405234801561001057600080fd5b506116e0806100206000396000f3fe608060405234801561001057600080fd5b50600436106100575760003560e01c80631a2b68f41461005c5780638a3166aa14610078578063aefedbc214610096578063c3ad5ecb146100b4578063f0312a37146100e4575b600080fd5b61007660048036038101906100719190610f76565b610100565b005b6100806102a0565b60405161008d91906112c7565b60405180910390f35b61009e610696565b6040516100ab91906112c7565b60405180910390f35b6100ce60048036038101906100c99190610fdd565b610af6565b6040516100db9190611329565b60405180910390f35b6100fe60048036038101906100f99190611006565b610cb9565b005b60008080549050905060006040518060a001604052808381526020013373ffffffffffffffffffffffffffffffffffffffff16815260200186815260200185815260200184151581525090806001815401808255809150506001900390600052602060002090600502016000909190919091506000820151816000015560208201518160010160006101000a81548173ffffffffffffffffffffffffffffffffffffffff021916908373ffffffffffffffffffffffffffffffffffffffff16021790555060408201518160020190805190602001906101e0929190610dfa565b506060820151816003015560808201518160040160006101000a81548160ff0219169083151502179055505050336001600083815260200190815260200160002060006101000a81548173ffffffffffffffffffffffffffffffffffffffff021916908373ffffffffffffffffffffffffffffffffffffffff1602179055507fafbd19dd81169f36fee38704c78d246b6c6c6e6c262e4293b340537f0f8dc60833828560405161029293929190611290565b60405180910390a150505050565b60606000808054905067ffffffffffffffff8111156102e8577f4e487b7100000000000000000000000000000000000000000000000000000000600052604160045260246000fd5b60405190808252806020026020018201604052801561032157816020015b61030e610e80565b8152602001906001900390816103065790505b5090506000805b60008054905081101561056a576000151560008281548110610373577f4e487b7100000000000000000000000000000000000000000000000000000000600052603260045260246000fd5b906000526020600020906005020160040160009054906101000a900460ff161515141561055757600081815481106103d4577f4e487b7100000000000000000000000000000000000000000000000000000000600052603260045260246000fd5b90600052602060002090600502016040518060a0016040529081600082015481526020016001820160009054906101000a900473ffffffffffffffffffffffffffffffffffffffff1673ffffffffffffffffffffffffffffffffffffffff1673ffffffffffffffffffffffffffffffffffffffff16815260200160028201805461045d906114ba565b80601f0160208091040260200160405190810160405280929190818152602001828054610489906114ba565b80156104d65780601f106104ab576101008083540402835291602001916104d6565b820191906000526020600020905b8154815290600101906020018083116104b957829003601f168201915b50505050508152602001600382015481526020016004820160009054906101000a900460ff16151515158152505083838151811061053d577f4e487b7100000000000000000000000000000000000000000000000000000000600052603260045260246000fd5b602002602001018190525081806105539061151d565b9250505b80806105629061151d565b915050610328565b5060008167ffffffffffffffff8111156105ad577f4e487b7100000000000000000000000000000000000000000000000000000000600052604160045260246000fd5b6040519080825280602002602001820160405280156105e657816020015b6105d3610e80565b8152602001906001900390816105cb5790505b50905060005b8281101561068c5783818151811061062d577f4e487b7100000000000000000000000000000000000000000000000000000000600052603260045260246000fd5b602002602001015182828151811061066e577f4e487b7100000000000000000000000000000000000000000000000000000000600052603260045260246000fd5b602002602001018190525080806106849061151d565b9150506105ec565b5080935050505090565b60606000808054905067ffffffffffffffff8111156106de577f4e487b7100000000000000000000000000000000000000000000000000000000600052604160045260246000fd5b60405190808252806020026020018201604052801561071757816020015b610704610e80565b8152602001906001900390816106fc5790505b5090506000805b6000805490508110156109ca573373ffffffffffffffffffffffffffffffffffffffff166001600083815260200190815260200160002060009054906101000a900473ffffffffffffffffffffffffffffffffffffffff1673ffffffffffffffffffffffffffffffffffffffff161480156107f5575060001515600082815481106107d2577f4e487b7100000000000000000000000000000000000000000000000000000000600052603260045260246000fd5b906000526020600020906005020160040160009054906101000a900460ff161515145b156109b75760008181548110610834577f4e487b7100000000000000000000000000000000000000000000000000000000600052603260045260246000fd5b90600052602060002090600502016040518060a0016040529081600082015481526020016001820160009054906101000a900473ffffffffffffffffffffffffffffffffffffffff1673ffffffffffffffffffffffffffffffffffffffff1673ffffffffffffffffffffffffffffffffffffffff1681526020016002820180546108bd906114ba565b80601f01602080910402602001604051908101604052809291908181526020018280546108e9906114ba565b80156109365780601f1061090b57610100808354040283529160200191610936565b820191906000526020600020905b81548152906001019060200180831161091957829003601f168201915b50505050508152602001600382015481526020016004820160009054906101000a900460ff16151515158152505083838151811061099d577f4e487b7100000000000000000000000000000000000000000000000000000000600052603260045260246000fd5b602002602001018190525081806109b39061151d565b9250505b80806109c29061151d565b91505061071e565b5060008167ffffffffffffffff811115610a0d577f4e487b7100000000000000000000000000000000000000000000000000000000600052604160045260246000fd5b604051908082528060200260200182016040528015610a4657816020015b610a33610e80565b815260200190600190039081610a2b5790505b50905060005b82811015610aec57838181518110610a8d577f4e487b7100000000000000000000000000000000000000000000000000000000600052603260045260246000fd5b6020026020010151828281518110610ace577f4e487b7100000000000000000000000000000000000000000000000000000000600052603260045260246000fd5b60200260200101819052508080610ae49061151d565b915050610a4c565b5080935050505090565b610afe610e80565b6000808381548110610b39577f4e487b7100000000000000000000000000000000000000000000000000000000600052603260045260246000fd5b90600052602060002090600502016040518060a0016040529081600082015481526020016001820160009054906101000a900473ffffffffffffffffffffffffffffffffffffffff1673ffffffffffffffffffffffffffffffffffffffff1673ffffffffffffffffffffffffffffffffffffffff168152602001600282018054610bc2906114ba565b80601f0160208091040260200160405190810160405280929190818152602001828054610bee906114ba565b8015610c3b5780601f10610c1057610100808354040283529160200191610c3b565b820191906000526020600020905b815481529060010190602001808311610c1e57829003601f168201915b50505050508152602001600382015481526020016004820160009054906101000a900460ff1615151515815250509050806080015115610cb0576040517f08c379a0000000000000000000000000000000000000000000000000000000008152600401610ca790611309565b60405180910390fd5b80915050919050565b3373ffffffffffffffffffffffffffffffffffffffff166001600084815260200190815260200160002060009054906101000a900473ffffffffffffffffffffffffffffffffffffffff1673ffffffffffffffffffffffffffffffffffffffff1614610d5a576040517f08c379a0000000000000000000000000000000000000000000000000000000008152600401610d51906112e9565b60405180910390fd5b8060008381548110610d95577f4e487b7100000000000000000000000000000000000000000000000000000000600052603260045260246000fd5b906000526020600020906005020160040160006101000a81548160ff0219169083151502179055507f2430f837dd2fb40e08c064be9db3d0cf2a7a21f8fe716a2a41787dafc66a7e2a8282604051610dee92919061134b565b60405180910390a15050565b828054610e06906114ba565b90600052602060002090601f016020900481019282610e285760008555610e6f565b82601f10610e4157805160ff1916838001178555610e6f565b82800160010185558215610e6f579182015b82811115610e6e578251825591602001919060010190610e53565b5b509050610e7c9190610ec7565b5090565b6040518060a0016040528060008152602001600073ffffffffffffffffffffffffffffffffffffffff16815260200160608152602001600081526020016000151581525090565b5b80821115610ee0576000816000905550600101610ec8565b5090565b6000610ef7610ef284611399565b611374565b905082815260208101848484011115610f0f57600080fd5b610f1a848285611478565b509392505050565b600081359050610f318161167c565b92915050565b600082601f830112610f4857600080fd5b8135610f58848260208601610ee4565b91505092915050565b600081359050610f7081611693565b92915050565b600080600060608486031215610f8b57600080fd5b600084013567ffffffffffffffff811115610fa557600080fd5b610fb186828701610f37565b9350506020610fc286828701610f61565b9250506040610fd386828701610f22565b9150509250925092565b600060208284031215610fef57600080fd5b6000610ffd84828501610f61565b91505092915050565b6000806040838503121561101957600080fd5b600061102785828601610f61565b925050602061103885828601610f22565b9150509250929050565b600061104e8383611186565b905092915050565b61105f81611430565b82525050565b61106e81611430565b82525050565b600061107f826113da565b61108981856113fd565b93508360208202850161109b856113ca565b8060005b858110156110d757848403895281516110b88582611042565b94506110c3836113f0565b925060208a0199505060018101905061109f565b50829750879550505050505092915050565b6110f281611442565b82525050565b61110181611442565b82525050565b6000611112826113e5565b61111c818561140e565b935061112c818560208601611487565b611135816115f3565b840191505092915050565b600061114d60378361141f565b915061115882611604565b604082019050919050565b600061117060168361141f565b915061117b82611653565b602082019050919050565b600060a08301600083015161119e6000860182611272565b5060208301516111b16020860182611056565b50604083015184820360408601526111c98282611107565b91505060608301516111de6060860182611272565b5060808301516111f160808601826110e9565b508091505092915050565b600060a0830160008301516112146000860182611272565b5060208301516112276020860182611056565b506040830151848203604086015261123f8282611107565b91505060608301516112546060860182611272565b50608083015161126760808601826110e9565b508091505092915050565b61127b8161146e565b82525050565b61128a8161146e565b82525050565b60006060820190506112a56000830186611065565b6112b26020830185611281565b6112bf6040830184611281565b949350505050565b600060208201905081810360008301526112e18184611074565b905092915050565b6000602082019050818103600083015261130281611140565b9050919050565b6000602082019050818103600083015261132281611163565b9050919050565b6000602082019050818103600083015261134381846111fc565b905092915050565b60006040820190506113606000830185611281565b61136d60208301846110f8565b9392505050565b600061137e61138f565b905061138a82826114ec565b919050565b6000604051905090565b600067ffffffffffffffff8211156113b4576113b36115c4565b5b6113bd826115f3565b9050602081019050919050565b6000819050602082019050919050565b600081519050919050565b600081519050919050565b6000602082019050919050565b600082825260208201905092915050565b600082825260208201905092915050565b600082825260208201905092915050565b600061143b8261144e565b9050919050565b60008115159050919050565b600073ffffffffffffffffffffffffffffffffffffffff82169050919050565b6000819050919050565b82818337600083830152505050565b60005b838110156114a557808201518184015260208101905061148a565b838111156114b4576000848401525b50505050565b600060028204905060018216806114d257607f821691505b602082108114156114e6576114e5611595565b5b50919050565b6114f5826115f3565b810181811067ffffffffffffffff82111715611514576115136115c4565b5b80604052505050565b60006115288261146e565b91507fffffffffffffffffffffffffffffffffffffffffffffffffffffffffffffffff82141561155b5761155a611566565b5b600182019050919050565b7f4e487b7100000000000000000000000000000000000000000000000000000000600052601160045260246000fd5b7f4e487b7100000000000000000000000000000000000000000000000000000000600052602260045260246000fd5b7f4e487b7100000000000000000000000000000000000000000000000000000000600052604160045260246000fd5b6000601f19601f8301169050919050565b7f4164647265737320646f6573206e6f742068617665207065726d697373696f6e60008201527f20746f20706572666f726d207468697320616374696f6e000000000000000000602082015250565b7f547765657420646f6573206e6f74206578697374732e00000000000000000000600082015250565b61168581611442565b811461169057600080fd5b50565b61169c8161146e565b81146116a757600080fd5b5056fea26469706673582212200e2df3a123c362bd648f3a7479c011ef9c563697289c26862a3d1ed7f667197564736f6c63430008040033",
  "linkReferences": {},
  "deployedLinkReferences": {}
}